{
  "transactions": [
    {
      "hash": "0xc338d18de9a8cb0fa5878ca2d012b1376a225b15bfd54cd55c9450392b02f89a",
      "transactionType": "CALL",
      "contractName": null,
      "contractAddress": "0x1f29301b61e09363d14bbc34d89fae6c9ea7de94",
      "function": "createRule((uint256,uint8,uint8,uint256,string,bool))",
      "arguments": [
        "(2, 0, 0, 3, ipfs://badge/buyer-three-purchases.json, true)"
      ],
      "transaction": {
        "from": "0x6cbc16befda81b959f98eca7cb3fbe7f9978357d",
        "to": "0x1f29301b61e09363d14bbc34d89fae6c9ea7de94",
        "gas": "0x41e53",
        "value": "0x0",
        "input": "0x8fd485d60000000000000000000000000000000000000000000000000000000000000020000000000000000000000000000000000000000000000000000000000000000200000000000000000000000000000000000000000000000000000000000000000000000000000000000000000000000000000000000000000000000000000000000000000000000000000000000000000000000000000000000000000000000300000000000000000000000000000000000000000000000000000000000000c000000000000000000000000000000000000000000000000000000000000000010000000000000000000000000000000000000000000000000000000000000027697066733a2f2f62616467652f62757965722d74687265652d7075726368617365732e6a736f6e00000000000000000000000000000000000000000000000000",
        "nonce": "0x18",
        "chainId": "0xaa36a7"
      },
      "additionalContracts": [],
      "isFixedGasLimit": false
    },
    {
      "hash": "0x6aa54d9d91033f196bcdea3fee1b7c1e8ad8b892eef4e1c42314d89de40bb0b1",
      "transactionType": "CALL",
      "contractName": null,
      "contractAddress": "0x1f29301b61e09363d14bbc34d89fae6c9ea7de94",
      "function": "createRule((uint256,uint8,uint8,uint256,string,bool))",
      "arguments": [
        "(3, 0, 1, 1, ipfs://badge/creator-one-sale.json, true)"
      ],
      "transaction": {
        "from": "0x6cbc16befda81b959f98eca7cb3fbe7f9978357d",
        "to": "0x1f29301b61e09363d14bbc34d89fae6c9ea7de94",
        "gas": "0x4896e",
        "value": "0x0",
        "input": "0x8fd485d60000000000000000000000000000000000000000000000000000000000000020000000000000000000000000000000000000000000000000000000000000000300000000000000000000000000000000000000000000000000000000000000000000000000000000000000000000000000000000000000000000000000000001000000000000000000000000000000000000000000000000000000000000000100000000000000000000000000000000000000000000000000000000000000c000000000000000000000000000000000000000000000000000000000000000010000000000000000000000000000000000000000000000000000000000000022697066733a2f2f62616467652f63726561746f722d6f6e652d73616c652e6a736f6e000000000000000000000000000000000000000000000000000000000000",
        "nonce": "0x19",
        "chainId": "0xaa36a7"
      },
      "additionalContracts": [],
      "isFixedGasLimit": false
    },
    {
      "hash": "0x38a72b268af0c32dfd443adcf7198e0d92052f7a8dc4445cc168f9aff56c1811",
      "transactionType": "CALL",
      "contractName": null,
      "contractAddress": "0x1f29301b61e09363d14bbc34d89fae6c9ea7de94",
      "function": "createRule((uint256,uint8,uint8,uint256,string,bool))",
      "arguments": [
        "(4, 0, 1, 3, ipfs://badge/creator-three-sales.json, true)"
      ],
      "transaction": {
        "from": "0x6cbc16befda81b959f98eca7cb3fbe7f9978357d",
        "to": "0x1f29301b61e09363d14bbc34d89fae6c9ea7de94",
        "gas": "0x489a1",
        "value": "0x0",
        "input": "0x8fd485d60000000000000000000000000000000000000000000000000000000000000020000000000000000000000000000000000000000000000000000000000000000400000000000000000000000000000000000000000000000000000000000000000000000000000000000000000000000000000000000000000000000000000001000000000000000000000000000000000000000000000000000000000000000300000000000000000000000000000000000000000000000000000000000000c000000000000000000000000000000000000000000000000000000000000000010000000000000000000000000000000000000000000000000000000000000025697066733a2f2f62616467652f63726561746f722d74687265652d73616c65732e6a736f6e000000000000000000000000000000000000000000000000000000",
        "nonce": "0x1a",
        "chainId": "0xaa36a7"
      },
      "additionalContracts": [],
      "isFixedGasLimit": false
    },
    {
      "hash": "0x42f624aa98bcaa56a52caec36cccfa7b6ad7afb795dfefc59578e93875f70a03",
      "transactionType": "CALL",
      "contractName": null,
      "contractAddress": "0x1f29301b61e09363d14bbc34d89fae6c9ea7de94",
      "function": "createRule((uint256,uint8,uint8,uint256,string,bool))",
      "arguments": [
        "(5, 0, 1, 10000000, ipfs://badge/creator-ten-usdt-volume.json, true)"
      ],
      "transaction": {
        "from": "0x6cbc16befda81b959f98eca7cb3fbe7f9978357d",
        "to": "0x1f29301b61e09363d14bbc34d89fae6c9ea7de94",
        "gas": "0x48a04",
        "value": "0x0",
        "input": "0x8fd485d60000000000000000000000000000000000000000000000000000000000000020000000000000000000000000000000000000000000000000000000000000000500000000000000000000000000000000000000000000000000000000000000000000000000000000000000000000000000000000000000000000000000000001000000000000000000000000000000000000000000000000000000000098968000000000000000000000000000000000000000000000000000000000000000c000000000000000000000000000000000000000000000000000000000000000010000000000000000000000000000000000000000000000000000000000000029697066733a2f2f62616467652f63726561746f722d74656e2d757364742d766f6c756d652e6a736f6e0000000000000000000000000000000000000000000000",
        "nonce": "0x1b",
        "chainId": "0xaa36a7"
      },
      "additionalContracts": [],
      "isFixedGasLimit": false
    }
  ],
  "receipts": [
    {
      "status": "0x1",
      "cumulativeGasUsed": "0xc8b2e9",
      "logs": [
        {
          "address": "0x1f29301b61e09363d14bbc34d89fae6c9ea7de94",
          "topics": [
            "0x78a158709a3266e040b9789e2fd744c3126a94d523ccdaa338f9abd45d36adae",
            "0x0000000000000000000000000000000000000000000000000000000000000002"
          ],
          "data": "0x00000000000000000000000000000000000000000000000000000000000000000000000000000000000000000000000000000000000000000000000000000000000000000000000000000000000000000000000000000000000000000000000300000000000000000000000000000000000000000000000000000000000000a000000000000000000000000000000000000000000000000000000000000000010000000000000000000000000000000000000000000000000000000000000027697066733a2f2f62616467652f62757965722d74687265652d7075726368617365732e6a736f6e00000000000000000000000000000000000000000000000000",
          "blockHash": "0x54390ce37b3956a83ac99228e4f8bc7f0b8f49f2fae9581c2f0a40da1e4e065d",
          "blockNumber": "0x903fe3",
          "blockTimestamp": "0x68f66c70",
          "transactionHash": "0xc338d18de9a8cb0fa5878ca2d012b1376a225b15bfd54cd55c9450392b02f89a",
          "transactionIndex": "0x4e",
          "logIndex": "0x71",
          "removed": false
        }
      ],
      "logsBloom": "0x04000000000000000000000000000000000000000000000000000000000000000000000000000000000000000000000000000000020000000000000000000000000000000000000000000000000000000000000000000000000000000000000000000000000000080000000000000000000000000000004000000000000000000000000000000000000000000000000000000000000000000000000000000000000000000000000010000100000000000000000000000000000000000000000000000000010000000000000000000000000000000000000000000000000000000000000000000000000000000008000000000000008000000000000000000000",
      "type": "0x2",
      "transactionHash": "0xc338d18de9a8cb0fa5878ca2d012b1376a225b15bfd54cd55c9450392b02f89a",
      "transactionIndex": "0x4e",
      "blockHash": "0x54390ce37b3956a83ac99228e4f8bc7f0b8f49f2fae9581c2f0a40da1e4e065d",
      "blockNumber": "0x903fe3",
      "gasUsed": "0x2fb50",
      "effectiveGasPrice": "0xf4240",
      "from": "0x6cbc16befda81b959f98eca7cb3fbe7f9978357d",
      "to": "0x1f29301b61e09363d14bbc34d89fae6c9ea7de94",
      "contractAddress": null
    },
    {
      "status": "0x1",
      "cumulativeGasUsed": "0xcbfbc5",
      "logs": [
        {
          "address": "0x1f29301b61e09363d14bbc34d89fae6c9ea7de94",
          "topics": [
            "0x78a158709a3266e040b9789e2fd744c3126a94d523ccdaa338f9abd45d36adae",
            "0x0000000000000000000000000000000000000000000000000000000000000003"
          ],
          "data": "0x00000000000000000000000000000000000000000000000000000000000000000000000000000000000000000000000000000000000000000000000000000001000000000000000000000000000000000000000000000000000000000000000100000000000000000000000000000000000000000000000000000000000000a000000000000000000000000000000000000000000000000000000000000000010000000000000000000000000000000000000000000000000000000000000022697066733a2f2f62616467652f63726561746f722d6f6e652d73616c652e6a736f6e000000000000000000000000000000000000000000000000000000000000",
          "blockHash": "0x54390ce37b3956a83ac99228e4f8bc7f0b8f49f2fae9581c2f0a40da1e4e065d",
          "blockNumber": "0x903fe3",
          "blockTimestamp": "0x68f66c70",
          "transactionHash": "0x6aa54d9d91033f196bcdea3fee1b7c1e8ad8b892eef4e1c42314d89de40bb0b1",
          "transactionIndex": "0x4f",
          "logIndex": "0x72",
          "removed": false
        }
      ],
      "logsBloom": "0x00000000000000000000000000000000000000000000000000000000000000000000000000000000000000000000000000000000020000000000000000000000000000000000000000000000000000000000000000000000000000000000000000000000000000080000000000000000000000000000004000000000000000000000000000000000000000000000000000000000000000000000000000000000000000000000000010000000000000000000000000800000000000000000400000000000010000000000000000000000000000000000000000000000000000000000000000000000000000000008000000000000000000000000000000000000",
      "type": "0x2",
      "transactionHash": "0x6aa54d9d91033f196bcdea3fee1b7c1e8ad8b892eef4e1c42314d89de40bb0b1",
      "transactionIndex": "0x4f",
      "blockHash": "0x54390ce37b3956a83ac99228e4f8bc7f0b8f49f2fae9581c2f0a40da1e4e065d",
      "blockNumber": "0x903fe3",
      "gasUsed": "0x348dc",
      "effectiveGasPrice": "0xf4240",
      "from": "0x6cbc16befda81b959f98eca7cb3fbe7f9978357d",
      "to": "0x1f29301b61e09363d14bbc34d89fae6c9ea7de94",
      "contractAddress": null
    },
    {
      "status": "0x1",
      "cumulativeGasUsed": "0xcf44c5",
      "logs": [
        {
          "address": "0x1f29301b61e09363d14bbc34d89fae6c9ea7de94",
          "topics": [
            "0x78a158709a3266e040b9789e2fd744c3126a94d523ccdaa338f9abd45d36adae",
            "0x0000000000000000000000000000000000000000000000000000000000000004"
          ],
          "data": "0x00000000000000000000000000000000000000000000000000000000000000000000000000000000000000000000000000000000000000000000000000000001000000000000000000000000000000000000000000000000000000000000000300000000000000000000000000000000000000000000000000000000000000a000000000000000000000000000000000000000000000000000000000000000010000000000000000000000000000000000000000000000000000000000000025697066733a2f2f62616467652f63726561746f722d74687265652d73616c65732e6a736f6e000000000000000000000000000000000000000000000000000000",
          "blockHash": "0x54390ce37b3956a83ac99228e4f8bc7f0b8f49f2fae9581c2f0a40da1e4e065d",
          "blockNumber": "0x903fe3",
          "blockTimestamp": "0x68f66c70",
          "transactionHash": "0x38a72b268af0c32dfd443adcf7198e0d92052f7a8dc4445cc168f9aff56c1811",
          "transactionIndex": "0x50",
          "logIndex": "0x73",
          "removed": false
        }
      ],
      "logsBloom": "0x00000000000000000000000000000000000000000000000000000000000000000000000000000000000000000000000000000000020000000000000000000000000000000000000000000000000000000000000000000000000000000000000008000000000000080000000000000000000000000000004000000000000000000000000000000000000000000000000000000000000000000000000000000000000000000000000010000000000000000000000000000000002000000000000000000000010000000000000000000000000000008000000000000000000000000000000000000000000000000008000000000000000000000000000000000000",
      "type": "0x2",
      "transactionHash": "0x38a72b268af0c32dfd443adcf7198e0d92052f7a8dc4445cc168f9aff56c1811",
      "transactionIndex": "0x50",
      "blockHash": "0x54390ce37b3956a83ac99228e4f8bc7f0b8f49f2fae9581c2f0a40da1e4e065d",
      "blockNumber": "0x903fe3",
      "gasUsed": "0x34900",
      "effectiveGasPrice": "0xf4240",
      "from": "0x6cbc16befda81b959f98eca7cb3fbe7f9978357d",
      "to": "0x1f29301b61e09363d14bbc34d89fae6c9ea7de94",
      "contractAddress": null
    },
    {
      "status": "0x1",
      "cumulativeGasUsed": "0xd28e0d",
      "logs": [
        {
          "address": "0x1f29301b61e09363d14bbc34d89fae6c9ea7de94",
          "topics": [
            "0x78a158709a3266e040b9789e2fd744c3126a94d523ccdaa338f9abd45d36adae",
            "0x0000000000000000000000000000000000000000000000000000000000000005"
          ],
          "data": "0x00000000000000000000000000000000000000000000000000000000000000000000000000000000000000000000000000000000000000000000000000000001000000000000000000000000000000000000000000000000000000000098968000000000000000000000000000000000000000000000000000000000000000a000000000000000000000000000000000000000000000000000000000000000010000000000000000000000000000000000000000000000000000000000000029697066733a2f2f62616467652f63726561746f722d74656e2d757364742d766f6c756d652e6a736f6e0000000000000000000000000000000000000000000000",
          "blockHash": "0x54390ce37b3956a83ac99228e4f8bc7f0b8f49f2fae9581c2f0a40da1e4e065d",
          "blockNumber": "0x903fe3",
          "blockTimestamp": "0x68f66c70",
          "transactionHash": "0x42f624aa98bcaa56a52caec36cccfa7b6ad7afb795dfefc59578e93875f70a03",
          "transactionIndex": "0x51",
          "logIndex": "0x74",
          "removed": false
        }
      ],
      "logsBloom": "0x00000000000000000000000000000000000000000000000000000000000000000000000000000000000000000000000000000000020000000000000000000000000010000000000000000000000000000000000000000000000000000000000000000000000000080000000000000000000000000000004000000000000000000000000000000000000000000000001000000800000000000000000000000000000000000000000010000000000000000000000000000000000000000000000000000000010000000000000000000000000000000000000000000000000000000000000000000000000000000008000000000000000000000000000000000000",
      "type": "0x2",
      "transactionHash": "0x42f624aa98bcaa56a52caec36cccfa7b6ad7afb795dfefc59578e93875f70a03",
      "transactionIndex": "0x51",
      "blockHash": "0x54390ce37b3956a83ac99228e4f8bc7f0b8f49f2fae9581c2f0a40da1e4e065d",
      "blockNumber": "0x903fe3",
      "gasUsed": "0x34948",
      "effectiveGasPrice": "0xf4240",
      "from": "0x6cbc16befda81b959f98eca7cb3fbe7f9978357d",
      "to": "0x1f29301b61e09363d14bbc34d89fae6c9ea7de94",
      "contractAddress": null
    }
  ],
  "libraries": [],
  "pending": [],
  "returns": {},
  "timestamp": 1760980082443,
  "chain": 11155111,
  "commit": "54d9460"
}